:041100009CEF2FF041
:08110800F76A180FF66E110ED4
:10111000F7220900F5501200280F01062020204771
:101120006572656E636961646F7220200000204300
:101130006F6C68656974612056257300312E362EF8
:101140003000496E696369616C697A616E646F2E03
:101150002E2E2000202020204D656D6F72696120A9
:101160002020202000004D656D6F7269612076653A
:10117000726966696361720020202020202020208F
:101180002020202020202020000025322E31662023
:101190004E2020200000566962726163616F202535
:1011A0006C7572706D200000202056656C2E202515
:1011B0006C756D2F68202020000020204469616735
:1011C0006E6F737469636F3A20200000506C656E17
:1011D00061202D2032312064696173200000506C41
:1011E000656E61202D203134206469617320000018
:1011F000506C656E61202D2037206469617320205A
:101200000000506C656E61202D20696D6564696118
:101210007461000053656C6574202D2032312064A8
:1012200069617320000053656C6574202D20313492
:10123000206469617320000053656C6574202D2063
:101240003720646961732020000053656C65742049
:101250002D20696D65646961746100004D65646984
:1012600063616F20696E76616C69646100002020A3
:10127000466F726361204D656469613A2020000009
:101280002020436572656A612025322E3166204E2A
:101290002020202000002020466F726361204D65D1
:1012A0006469613A20200000202056657264653A26
:1012B0002025322E3166204E202020200000205094
:1012C000726F647574697669646164653A200000C0
:1012D00020202020256C752073632F68612020203A
:1012E000202000002043617267612050656E6465B4
:1012F0006E74653A000020202530326C752E2575FD
:10130000204C2F706C616E746120000020202043FF
:101310006F6C6865646F72613A20202000004B5446
:1013200052202020202020202020202020200000CB
:101330004D6174616F20202020202020202020205B
:1013400000004D6174616F2054726163696F6E615A
:10135000646100004B6F7276616E20202020202097
:101360002020202000004341534520202020202021
:10137000202020202020000043415345205472614A
:1013800063696F6E6164612000004B332020202070
:10139000202020202020202020200000544449200C
:1013A0002020202020202020202020200000544425
:1013B000492054726163696F6E616461202000008E
:1013C0005665746F722020202020202020202020AD
:1013D0000000202020202052656E64613A202020E9
:1013E00020200000202020256C75204C2F73616385
:1013F00061202020000020506F7263656E742E20E3
:1014000056657264653A000020204176616C69611E
:1014100064613A202530327520202000506F7263BD
:10142000656E742E20436572656A613A0000202063
:101430004176616C696164613A2025303275202003
:101440002000202052616D6F732F706C616E74618B
:101450003A20000020202020202020202575202058
:10146000202020202000416C74757261206461206E
:10147000506C616E746100002020202530312E31C7
:1014800066206D6574726F73202020004573706153
:10149000636F20656E7472652052756100002020B4
:1014A000202530312E3166206D6574726F732020D7
:1014B000200045737061636F20656E747265205003
:1014C000657300002020202530312E3166206D65A7
:1014D00074726F732020200020202056617269658D
:1014E000646164653A20202000002020204D756E44
:1014F000646F204E6F766F20202000002020202077
:101500002043617475616920202020200000202084
:101510002020436174756361692020202020000031
:10152000202020202041636169612020202020208C
:101530000000202020202049636174752020202095
:101540002020000020202020546F70617A696F20D5
:1015500020202020000020202020202052756269B9
:10156000202020202020000020202020204F626109
:101570007461202020202020000020202020204FE7
:101580007574726F73202020202000002044617445
:10159000613A20253032752F253032752F253032B3
:1015A00075004176616C696163616F2073616C766F
:1015B00061210000205669646520686973746F7248
:1015C00069636F200000466F726361205665726424
:1015D0006520282575292000506F6E74613A2020FF
:1015E00020202020202020200000466F72636120F0
:1015F0005665726465202825752920004D65696F40
:101600003A20202020202020202020200000466F8B
:101610007263612056657264652028257529200053
:10162000536169613A2020202020202020202020A2
:101630000000466F72636120436572656A6120280D
:1016400025752900506F6E746120313A20202020CA
:10165000202020200000466F726361204365726580
:101660006A61202825752900506F6E746120323A16
:1016700020202020202020200000466F726361205F
:10168000436572656A612028257529004D65696F7B
:101690003A20202020202020202020200000466FFB
:1016A00072636120436572656A612028257529008F
:1016B0005361696120313A20202020202020202001
:1016C0000000466F72636120436572656A6120287D
:1016D000257529005361696120323A20202020209D
:1016E000202020200000202020506C616E74616357
:1016F000616F3A20202000002020256C7520706545
:10170000732F68612020200020202020436F6E6608
:1017100069726D6172202020000020202020566117
:101720006C6F7265733F2020202000002020202055
:10173000436F7272696769722020202000002020A8
:10174000202056616C6F7265733F202020200000BE
:10175000202020506C616E746163616F3A202020FC
:1017600000002020256C75207065732F6861202093
:10177000200020202530326C752E2575204C2F70CE
:101780006C616E7461200000476C6562612063616A
:1017900064617374726164610000496D706F72748A
:1017A0006172206461646F733F200000202020205C
:1017B000476C6562613A2025752020202000204377
:1017C0006F6E6669726D61206C696D706172000088
:1017D000202020206D656D6F7269613F20202020E0
:1017E0000000202020204D656D6F7269612020204F
:1017F0002020000020202020617061676164612149
:10180000202020200000202020476C656261206E8F
:10181000616F20202020000020202063616461731C
:101820007472616461202020000020204D6F646F7D
:101830002042616C616E6361202000002020202521
:1018400030346C75206772616D61732020004D6FBC
:10185000646F2063616C6962726163616F20000074
:101860002020202020202530346C752020202020AE
:1018700020005A65726F20617475616C697A6164C9
:101880006F20000020414443207A65726F3A202582
:1018900030346C7520004D6F646F2063616C696239
:1018A000726163616F20000020202020496E6F76F6
:1018B0006163616F202020200000202020434549E3
:1018C0004641204C7464612E202000005A657261EC
:1018D0006E646F2062616C616E6361200000204E57
:1018E000616F20746F717565207065736F200000E3
:1018F00020312E204E6F76612020202020202020B5
:101900002000202020204176616C696163616F2096
:101910002020000020322E20486973746F726963A2
:101920006F20202020002020202020202020202088
:10193000202020202020000020332E2043616C69CD
:101940006272617220202020200020202020202090
:1019500020202020202020202020000020342E20A5
:101960004C696D70617220202020202020002020F2
:1019700020204D656D6F72696120202020200000BD
:10198000EA6A9E0EE96EEF500EE00F0E016E006ADD
:10199000002EFED7012EFBD78F0E006E002EFED735
:1019A0000000EF2EF2D71200A5B102D08A9601D026
:1019B0008A869396A5B302D08A9401D08A849394A0
:1019C000A5B502D08A9201D08A829392A5B702D09F
:1019D0008A9001D08A80939093988A8893988A9865
:1019E0001200010EA45F0CE3EA6AA40EE96EEF5048
:1019F00007E0020E006E002EFED700D0EF2EF9D7C2
:101A00001200939A8A9AA25302E18A9A01D08A8A92
:101A1000939A640EA46FE5DF93988A98A339A46F14
:101A20000F0EA417A4C0A5F0BFDFA3510F0BA46F26
:101A3000A56FBADF120093968A9693948A94939234
:101A40008A9293908A90939A8A9A93988A980F0E82
:101A50009E6F96DF010E8B6F8B51030808E3030E18
:101A6000A56FA2DF050E9E6F8BDF8B2BF5D7020EC5
:101A7000A56F9ADF8B6B8B5103080FE3036A8B51C1
:101A8000F2CF8CF0F29E84EC08F08CBFF28E8C6F5B
:101A9000A26BA36FB6DF8B2BEED7C3EF2FF09F2D7A
:101AA00001D003D0400EA06F01D0A06B010E9E5D4F
:101AB000A027A0518009A16FA26BA36FA2DF120023
:101AC0009D510C0A07E0060A0DE0070A0BE0050A23
:101AD0000FE013D0A26B010EA36F93DF020E9E6F77
:101AE0004FDF10D0010E9E6F020E9F6FD8DF0AD01D
:101AF000A26B100EA36F85DF05D0010EA26F9DC0F3
:101B0000A3F07FDF12000C0E9D6FDADF12008FC092
:101B10009DF0D6DF96EF0DF00900F5520CE0F6CF00
:101B20008DF0F7CF8EF0F5CF8FF0F1D78DC0F6FFA7
:101B30008EC0F7FFF1D71200010E9E6F020E9F6F4D
:101B4000AEDF12000900F6CF91F0F7CF92F0F5CF9B
:101B50009DF0B6DF91C0F6FF92C0F7FF902FF2D74D
:101B600012000900F5520CE0F6CF8DF0F7CF8EF0A1
:101B7000F5CF9DF0A5DF8DC0F6FF8EC0F7FFF1D742
:101B800012008B6B8B51130806E3640E9E6FF8DE18
:101B900004008B2BF7D71200B6DF1C0EF66E110E69
:101BA000F76EBADFC9DF2E0EF66E110EF76E0B0E52
:101BB000906FC8DF3C0EF66E110EF76ED2DFE1DFDC
:101BC000C5EF2FF08C6B8B6B8C51000815E3F2CFB7
:101BD0008DF0F29E8BC0A9FFA69CA69EA680A85061
:101BE0008DBFF28EFF0803E0000E016E07D00400E7
:101BF0008B2BD8B48C2BE8D7010E016E1200F2CFDC
:101C00008BF0F29EFD0EA96EA69CA69EA680A85003
:101C10008BBFF28E0C6E0C501F0802E20F0E0C6E82
:101C2000F2CF8BF0F29EFE0EA96EA69CA69EA68019
:101C3000A8508BBFF28E0D6E0D500C0802E2040E00
:101C40000D6EF2CF8BF0F29EA968A69CA69EA68090
:101C5000A8508BBFF28E0E6E0E50630802E2100E7B
:101C60000E6E0F6A0A0E106E230E116E1E0E126E8D
:101C7000010E136E190E146E320E156E010E1F6ECC
:101C8000E00E1E6E166A1A6A080E196E1B6A1200A2
:101C900090510008D8A027D0F2CF92F0F29E8FC0CA
:101CA000A9FFA69CA69EA680A85092BFF28E915D29
:101CB0001AE0F250006EF29E8FC0A9FF91C0A8FFFB
:101CC000A69CA69EA6840F01550EA76EAA0EA76E0F
:101CD000A682A6B2FED7A6940050F2120A0E000108
:101CE0009E6F4EDE040012008D6B8F6B8E6B8F53D8
:101CF00014E18E51FB0811E3F2CF90F0F29E8EC0FA
:101D0000A9FFA69CA69EA680A85090BFF28E8D1B10
:101D100004008E2BD8B48F2BEAD78DC001F01200AF
:101D2000E3DF01C08DF0906BFC0E8F6F01C091F06E
:101D3000AFDF120047DF015203E0000E016E14D046
:101D4000F2CF8BF0F29EFC0EA96EA69CA69EA680FA
:101D5000A8508BBFF28E8C6FC7DF01508C5D02E004
:101D6000000E01D0010E016EDBEF0EF02BDF0152F1
:101D700021E0C9DE420EF66E110EF76ECDDEDCDE1E
:101D8000540EF66E110EF76EC7DEFBDE38DF906B79
:101D9000FD0E8F6F0CC091F07BDF906BFE0E8F6F8E
:101DA0000DC091F075DF906B8F690EC091F070DF00
:101DB000B7DF10D0BFD701520DE1A5DE660EF66E7B
:101DC000110EF76EA9DEB8DE780EF66E110EF76E04
:101DD000A3DED7DEC8EF2FF08D6B8D51310806E3FF
:101DE000640E9E6FCDDD04008D2BF7D71200FA0E26
:101DF0009E6FC6DD04001200016A026A006A036A6F
:101E0000975102E1965118E0100E986FD8909437D0
:101E10009537003603369751035C02E19651005C1A
:101E200007E39651005ED8A003069751035ED88061
:101E300001360236982FEAD71200936B926B916BA2
:101E40009051915D0DE2C282C2B2FED7C35092277B
:101E5000C4509323C80EA46FC4DD0400912BF0D7A7
:101E600093C095F092C094F0976B90C096F0C4DF49
:101E700002C003F002C002F01200100E906FDDDF0E
:101E800002501200EACF93F0E9CF92F08C39F009BA
:101E90008E6F8E27E20F8F6F320F916F8C510F0B69
:101EA0008F278F279127E90F906F902790278B39E5
:101EB0000F0B9027912790379137911F91378B51B6
:101EC0000F0B91278E37070E8D6F0A0E9007912703
:101ED000FDE38F079027FDE38E078F27FDE38D0736
:101EE0008E27FDE3EA6A8D0EE96E070E9215929D2C
:101EF000E926910EE95CD8B4928DEF50006E08E1AE
:101F000092BD06D092B913D092B702D0200E03D062
:101F100092879299300E0026EACF8CF0E9CF8BF0B1
:101F200000C09DF0CDDD8CC0EAFF8BC0E9FFEE5014
:101F300092ADDFD71200E7DD4E0EF66E180EF76E8B
:101F4000EBDD040054DF99DF02C008F001C007F0A8
:101F5000F3DD600EF66E180EF76E060E906FF2DD72
:101F6000090EE96E08C08CF007C08BF08BDF6B0E9A
:101F7000F66E180EF76E060E906FE4DD80A40DD09D
:101F80001E0E9E6FFDDC80A408D080A402D0040049
:101F9000FCD71E0E9E6FF4DC2FD080A62CD01E0E18
:101FA0009E6FEEDC80A627D008C006F007C005F0C3
:101FB00080A602D00400FCD7A6DD720EF66E180EC5
:101FC000F76EAADDB9DD840EF66E180EF76E0B0EF5
:101FD000906FB8DD090EE96E06C08CF005C08BF07D
:101FE00051DF200E9D6F6CDDF7DE8DDD960EF66EF7
:101FF000180EF76E91DDA5D7120093519519800B3D
:10200000976F93AF05D0921F931F922BD8B4932B49
:1020100095AF05D0941F951F942BD8B4952B925152
:102020009403F3CF01F0F4CF00F09503F3500026B2
:1020300093519403F3500020026E97AF05D0011E18
:10204000021E012AD8B4022A3EEF10F00550075CA8
:10205000906F06500858916F91BF05D0915306E1DB
:102060009051020803E30A6A096A0CD091C093F008
:1020700090C092F0956B030E946FBFD701C009F02A
:1020800002C00AF012003FDD2A0EF66E180EF76E3F
:1020900043DD0400ACDEF1DE02C008F001C007F051
:1020A000D5DF4ADD3C0EF66E180EF76E030E906F0C
:1020B00049DD090EE96E0AC08CF009C08BF0E2DE42
:1020C000440EF66E180EF76E090E906F3BDD80A47D
:1020D0000DD01E0E9E6F54DC80A408D080A402D0C8
:1020E0000400FCD71E0E9E6F4BDC01D0D2D7FAEF56
:1020F0002FF0100E9E6F020E9F6FD1DC939A8A9A7A
:102100008A8A939A640EA46F6CDC93988A98070E5F
:10211000A56F4ADC0E0EA56F47DC12000DDD939A09
:102120008A9A8A8A939A640EA46F5BDC93988A9841
:10213000070EA56F39DC0F0EA56F36DC120057DED7
:10214000040080A60ED01E0E9E6F1ADC80A609D059
:10215000046A80A602D00400FCD71E0E9E6F10DC1D
:1021600039D080A410D01E0E9E6F0ADC80A40BD044
:10217000010E046E80A402D00400FCD71E0E9E6FD8
:10218000C0EC0CF027D080A211D01E0E9E6FC0ECC8
:102190000CF080A20BD0020E046E80A202D00400CC
:1021A000FCD71E0E9E6FC0EC0CF014D080A811D08E
:1021B0001E0E9E6FC0EC0CF080A80BD0030E046EB8
:1021C00080A802D00400FCD71E0E9E6FC0EC0CF05D
:1021D00001D0B6D712008F51016A8E5D03E28EC026
:1021E00000F00CD0006A080E906F8E3700368F51C9
:1021F000005CD8B0006E0136902FF7D71200015066
:102200008CC08EF0640E8F6FE6DF00C08CF0015042
:10221000300E07E18DA30CD08DB70AD08DB9200EFA
:1022200003D08D978D998D81012601C09DF048DCEA
:102230008CC08EF00A0E8F6FCEDF00C08CF0015084
:10224000300E06E18DB708D08DA106D08DB9200ED5
:10225000012601C09DF034DC300E8C278CC09DF02F
:102260002FDC120050DCAC0EF66E170EF76E0B0E64
:10227000906F68DC0BC08CF01B0E8D6FC0DFB90E49
:10228000F66E170EF76E040E906F5CDC0B500908AB
:1022900006E20D0E9E6F010E9F6F01DC06D00C0E44
:1022A0009E6F010E9F6F4FEC0DF049DF045202E06C
:1022B000042C01D011D00450020805E10B50010894
:1022C00002E2010E0B5E0450030805E10B500B08FF
:1022D00002E3010E0B26C6D712000B5203E00B508F
:1022E0000C0802E2010E0B6E010E0B5C150DF35093
:1022F0008C6B8B6FF2CF8DF0F29E8BC0A9FFA69CEA
:10230000A69EA680A8508DBFF28E0C6E010E8B2566
:102310008D6F000E8C218E6FF2CF8FF0F29E8DC0EC
:10232000A9FFA69CA69EA680A8508FBFF28E0D6E18
:10233000020E8B258D6F000E8C218E6FF2CF8FF0E9
:10234000F29E8DC0A9FFA69CA69EA680A8508FBF16
:10235000F28E0E6E030E8B258D6F000E8C218E6F0C
:10236000F2CF8FF0F29E8DC0A9FFA69CA69EA680FC
:10237000A8508FBFF28E0F6E040E8B258D6F000E4E
:102380008C218E6FF2CF8FF0F29E8DC0A9FFA69C9C
:10239000A69EA680A8508FBFF28E106E050E8B25CC
:1023A0008D6F000E8C218E6FF2CF8FF0F29E8DC05C
:1023B000A9FFA69CA69EA680A8508FBFF28E116E84
:1023C000060E8B258D6F000E8C218E6FF2CF8FF055
:1023D000F29E8DC0A9FFA69CA69EA680A8508FBF86
:1023E000F28E126E070E8B258D6F000E8C218E6F74
:1023F000F2CF8FF0F29E8DC0A9FFA69CA69EA6806C
:10240000A8508FBFF28E136E080E8B258D6F000EB5
:102410008C218E6FF2CF8FF0F29E8DC0A9FFA69C0B
:10242000A69EA680A8508FBFF28E146E090E8B2533
:102430008D6F000E8C218E6FF2CF8FF0F29E8DC0CB
:10244000A9FFA69CA69EA680A8508FBFF28E156EEF
:102450000A0E8B258D6F000E8C218E6FF2CF8FF0C0
:10246000F29E8DC0A9FFA69CA69EA680A8508FBFF5
:10247000F28E166E0B0E8B258D6F000E8C218E6FDB
:10248000F2CF8FF0F29E8DC0A9FFA69CA69EA680DB
:10249000A8508FBFF28E1A6A196E0C0E8B258D6FA5
:1024A000000E8C218E6FF2CF8FF0F29E8DC0A9FFAF
:1024B000A69CA69EA680A8508FBFF28E1B6E0D0E06
:1024C0008B258D6F000E8C218E6FF2CF8FF0F29ED8
:1024D0008DC0A9FFA69CA69EA680A8508FBFF28E95
:1024E000216A206E0E0E8B258D6F000E8C218E6F53
:1024F000F2CF8FF0F29E8DC0A9FFA69CA69EA6806B
:10250000A8508FBFF28E876F0F0E8B258D6F000E38
:102510008C218E6FF2CF8FF0F29E8DC0A9FFA69C0A
:10252000A69EA680A8508FBFF28E886F88C078F0D4
:1025300087C077F0100E8B258D6F000E8C218E6F6B
:10254000F2CF8FF0F29E8DC0A9FFA69CA69EA6801A
:10255000A8508FBFF28E876F110E8B258D6F000EE6
:102560008C218E6FF2CF8FF0F29E8DC0A9FFA69CBA
:10257000A69EA680A8508FBFF28E886F88C07AF082
:1025800087C079F0120E8B258D6F000E8C218E6F17
:10259000F2CF8FF0F29E8DC0A9FFA69CA69EA680CA
:1025A000A8508FBFF28E7D6F130E8B258D6F000E9E
:1025B0008C218E6FF2CF8FF0F29E8DC0A9FFA69C6A
:1025C000A69EA680A8508FBFF28E7F6B7E6F140EE2
:1025D0008B258D6F000E8C218E6FF2CF8FF0F29EC7
:1025E0008DC0A9FFA69CA69EA680A8508FBFF28E84
:1025F000816B806F0C5203E00C501F0802E20F0E3B
:102600000C6E0D5203E00D500C0802E2040E0D6E2C
:102610000E50630802E2100E0E6E0F50080801E221
:102620000F6A1050040803E21050190802E20A0E63
:10263000106E1150130803E21150320802E2230E0B
:10264000116E1250090803E212503C0802E21E0EFD
:10265000126E135203E01350030802E2010E136ED0
:102660001450640802E2190E146E1550640802E258
:10267000320E156E1650090801E2166A1B50090841
:1026800001E21B6A1200FFEC0DF027DE7D51090804
:1026900003E2FFEC0DF017D083EC0DF0880EF66E20
:1026A000170EF76E8CEC0DF09CEC0DF09A0EF66E9A
:1026B000170EF76E8CEC0DF042DD045202E0042C94
:1026C00001D001D0E9D774EF2CF083EC0DF08C0E23
:1026D000F66E150EF76E070E906FA2EC0DF00CC0A3
:1026E0008CF0010E8D6F8BDD2F0E9D6F60EC0DF069
:1026F0000DC08CF0010E8D6F82DD2F0E9D6F60EC92
:102700000DF00EC08CF0010E8D6F79DD1200DDDF53
:10271000090E9E6F010E9F6F4FEC0DF010DD0452FD
:1027200008E1906BFD0E8F6F0CC091F048EC0EF03D
:1027300014D0042C01D05CD00450030805E10C50E7
:102740001E0802E3010E0C260450020805E10C509D
:10275000010802E2010E0C5EDAD7B7DF0C0E9E6FA5
:10276000010E9F6F4FEC0DF0EADC045208E1906B14
:10277000FE0E8F6F0DC091F048EC0EF014D0042CBB
:1027800001D0C5D70450030805E10D500B0802E342
:10279000010E0D260450020805E10D50010802E269
:1027A000010E0D5EDAD791DF0F0E9E6F010E9F6F47
:1027B0004FEC0DF0C4DC045207E1906B8F690EC042
:1027C00091F048EC0EF014D0042C01D0C6D7045080
:1027D000030805E10E50620802E3010E0E260450C4
:1027E000020805E10E50000802E2010E0E5EDBD782
:1027F00079EF2CF083EC0DF0D80EF66E140EF76E18
:102800008CEC0DF09CEC0DF00F5206E1EA0EF66E2A
:10281000140EF76E8CEC0DF00F2C06D0FC0EF66E3D
:10282000140EF76E8CEC0DF00F50020806E10E0E40
:10283000F66E150EF76E8CEC0DF00F50030806E1E6
:10284000200EF66E150EF76E8CEC0DF00F5004088E
:1028500006E1320EF66E150EF76E8CEC0DF00F5091
:10286000050806E1440EF66E150EF76E8CEC0DF0C1
:102870000F50060806E1560EF66E150EF76E8CEC3C
:102880000DF00F50070806E1680EF66E150EF76E94
:102890008CEC0DF00F50080806E17A0EF66E150E5E
:1028A000F76E8CEC0DF01200A5DF49DC045202E05B
:1028B000042C01D010D00450030805E10F50070884
:1028C00002E3010E0F260450020804E10F5202E059
:1028D000010E0F5EE9D77EEF2CF08E0E006E91C0D8
:1028E00001F090C002F0036A015209E102C001F058
:1028F000026A080E005E015202E1006A08D0D89018
:1029000001BE04D0023601360006F9D7019E12003E
:102910009051D8B4A5D09C6F9451D8B4A1D09C5FED
:1029200005E37F0E9C27D8B09BD006D0810E9C5F1C
:10293000D8A096D0D8B494D09CC000F0016A026AA6
:10294000036A9B6B91C09AF09A8F92C099F093C0E2
:1029500098F0190E9C6F9751985F0DE2010E995FE8
:102960000AE29A5F08E29B5F06E29B2B9A2B992B67
:102970009751982728D09651995F12E2010E9A5FDD
:102980000FE29B5F0DE29B2B9A2B96519927975153
:10299000982719E3992B17E19A2B15E19B2B13D05C
:1029A000955180099A5F0EE2010E9B5F0BE29B2B13
:1029B000955180099A2796519927E9E39A2BE7E1E7
:1029C0009B2BE5D703809C2F01D00BD0D890983754
:1029D00099379A379B37D8900336023601369D37A0
:1029E000BAD79DA106D0D8900132023203329D336E
:1029F00002D0000635E09DBF1ED0D8909837993799
:102A00009A379B379751985F07E2010E995F04E26E
:102A10009A5F02E29B5F1AE39651995F05E2010E0D
:102A20009A5F02E29B5F12E3955180099A5F03E28D
:102A3000010E9B5F0BE3032A09E1022A07E1012A49
:102A400005E1002A0DE001320232033291C09CF010
:102A500095519C1B9CAF02D0018E06D0019E04D0E4
:102A6000006A016A026A036A12009D51D8B471D0EB
:102A7000006EA151D8B46DD0002604E3810E00266B
:102A800068E204D07F0E005E64E363E09EC0A5F0C0
:102A9000A251A51B9E8FA28FA051A403F4CFA7F033
:102AA0009F51A303F4CF03F0F3CFA6F0A403F35098
:102AB000A727F450A623000E0322A051A303F3502E
:102AC000A727F450A623000E026A032202229E5179
:102AD000A403F350A627F4500322000E02229E51B5
:102AE000A303F3500326F4500222000E016A0122D0
:102AF000A051A203F350A627F4500322000E022295
:102B000001229F51A203F3500326F4500222000E2B
:102B100001229E51A203F3500226F4500122002A02
:102B200001BE05D0A6370336023601360006000E78
:102B3000A6AF0AD0032A02220122015005E1025069
:102B400003E1035001E1002AA5BF018EA5AF019E5C
:102B500004D0006A016A026A036A12009D51B60835
:102B60009D6F036A9EC0A1F09E8FD8909E339F33C5
:102B7000A03303320232013200329D2FF6D7A1AFCB
:102B80000BD0001E011E021E031E002AD8B4012A0B
:102B9000D8B4022AD8B4032A3CEF16F0D8B203D036
:102BA000EA6AA50EE96E006A016A026A036AA56B09
:102BB000A66BA76BA86BA451A311A211A1112CE0C5
:102BC000200EA96FD8909D379E379F37A037A53725
:102BD000A637A737A837A451A85D08E1A351A75D80
:102BE00005E1A251A65D02E1A151A55D0FE3A1514E
:102BF000A55FA251D8A0A23DA65FA351D8A0A33D36
:102C0000A75FA451D8A0A43DA85FD88000360136A4
:102C100002360336A92FD6D7A5C0EFFFA6C0ECFF1A
:102C2000A7C0ECFFA8C0ECFF1200E950956F9451CB
:102C3000976F19E093C0A0F092C09FF091C09EF0F2
:102C400090C09DF0A46BA36B200EA26F820EA16FAB
:102C50000CDF03C093F002C092F001C091F000C0FD
:102C600090F0972FE7D793C0A0F092C09FF091C04B
:102C70009EF090C09DF072D703C093F002C092F016
:102C800001C091F000C090F093AF0DD09507958BE7
:102C9000901F911F921F931F902BD8B4912BD8B4E3
:102CA000922BD8B4932B3B0E9C6F9A0E9B6FCA0E3F
:102CB0009A6F996B0A0E976F9451D8B4952BD8825E
:102CC000EA6A900EE96E93C0A0F092C09FF091C0A6
:102CD0009EF090C09DF09CC0A4F09BC0A3F09AC051
:102CE000A2F099C0A1F05ADF015000520FE19429DF
:102CF000975D0CE095510CE00F0B975D01E03BE216
:102D000095BF39D095BD04D0200E30D0200E951738
:102D100095AB0DD0959B9451D8A495070050956F15
:102D20002D0E9D6F60EC0DF09551006E956B9451DA
:102D3000975D0BE10050956F2E0E9D6F60EC0DF0CE
:102D40009551006E200E9517000E300E95AB0ED0EB
:102D5000959B9451D8A495070050956F2D0E9D6FAB
:102D600060EC0DF09551006E956B300E002600C0A2
:102D70009DF060EC0DF0D8929CC0A0F09BC09FF03D
:102D80009AC09EF099C09DF0A46BA36BA26B0A0E33
:102D9000A16F04DF03C09CF002C09BF001C09AF059
:102DA00000C099F0972F8BD7120083EC0DF0B20E74
:102DB000F66E140EF76E8CEC0DF09CEC0DF0C40E5C
:102DC000F66E140EF76E030E906FA2EC0DF0C90EA6
:102DD000E96E86C093F085C092F084C091F083C004
:102DE00090F0010E946F21DFCD0EF66E140EF76E8B
:102DF0000A0E906FA2EC0DF012008E0E006E8B5139
:102E0000005E8CC002F08DC001F0028E005209E01D
:102E1000D890025202E1015204E002320132002E47
:102E2000F7D78CAF05D0011E021E012AD8B4022AA2
:102E300012008CC093F09051931B93AF05D0D8949F
:102E4000D8908CBFD8802FD08CC093F08FC094F0D6
:102E50008B51945F06E093AF26D0D850010AD86E0C
:102E600022D090C094F08C51945F06E093AF1BD0B9
:102E7000D850010AD86E17D091C094F08D51945F4C
:102E800006E093AF10D0D850010AD86E0CD092C093
:102E900094F08E51945F06E093AF05D0D850010AAC
:102EA000D86E01D0D8901200800ED8B2901B956BCE
:102EB000966B8CC094F09051941B8B51D8B4DCD09D
:102EC000936F006E8F51D8B4E0D0935FD8B481D0A7
:102ED0003DE390C099F0998F91C098F092C097F01F
:102EE000966BD8909933983397339633932FF8D7BE
:102EF00094AF03D09581DDD0959193919589EA6A3D
:102F00008E0EE96EE9D0959994BF0AD093A113D0A3
:102F10009933983397339633002AD8B4C5D00BD061
:102F200099BF0CD0D89096379737983799370006C5
:102F3000D8B4BAD0F5D7958D6BD0959D8CC094F050
:102F40008CAF02D0998FA9D0999FA7D08FC093F052
:102F50008FC000F08B51935F8CC099F0998F8DC01A
:102F600098F08EC097F0966BD8909933983397333A
:102F70009633932FF8D794AF03D095839AD0959337
:102F80009391958BEA6A920EE96EA6D0959B94BFB9
:102F90000AD093A113D09933983397339633002AEC
:102FA000D8B482D00BD099BF0CD0D8909637973731
:102FB000983799370006D8B477D0F5D7958F28D0B1
:102FC000959F90C094F090AF02D0998F66D0999F52
:102FD00064D090C099F0998F91C098F092C097F00A
:102FE00094AF04D0999F958564D09595966B9391F5
:102FF000EA6A8E0EE96E70D094BF1CD08CC094F03B
:1030000093A106D09933983397339633002A4CE036
:1030100096AF0BD0972B09E1982B07E1992B05E18F
:10302000993398339733002A3FE095BD86D795BFF3
:10303000C7D71CD0800E991B99AF04D03AD090C04E
:1030400094F00AD08CC094F0995306E1985304E1AF
:10305000975302E1006A21D099BF08D0D8909637E3
:10306000973798379937002EF7D71ED094AF02D0F4
:10307000998F13D0999F11D08FC000F090C099F014
:1030800091C098F092C097F008D08BC000F08CC02F
:1030900099F08DC098F08EC097F099C001F098C05B
:1030A00002F097C003F034D0006A016A026A036A32
:1030B0002FD0966B971F981F991F961F962B05E18F
:1030C000972B03E1982B01E1992B95B115D795B377
:1030D00056D795B58AD7B3D7EF50972705E3982BE6
:1030E00003E1992BD8B49381ED52EF50982703E375
:1030F000992BD8B49381ED52EF50EFBE01D0800AE6
:103100009927D8B0938195B9FED695BB3FD774D790
:103110001200916B10C090F06DEC14F003C08EF0B3
:1031200002C08DF001C08CF000C08BF003C093F0A2
:1031300002C092F001C091F000C090F0976B966BC6
:10314000200E956F820E946F88EC14F003C086F009
:1031500002C085F001C084F000C083F026DE060EB8
:103160009E6F020E9F6F4FEC0DF09FEC10F004521B
:1031700023E186C0A0F085C09FF084C09EF083C08C
:103180009DF0A46BA36B200EA26F820EA16F6DDC6D
:1031900003C086F002C085F001C084F000C083F057
:1031A00086C08EF085C08DF084C08CF083C08BF01B
:1031B00024DE01C010F062D0042C01D05FD0045096
:1031C00003082BE186C08EF085C08DF084C08CF0A2
:1031D00083C08BF0926B916B200E906F800E8F6F7F
:1031E00028DE01E21AE1D89286C08EF085C08DF00B
:1031F00084C08CF083C08BF0CD0E926FCC0E916F9B
:103200004C0E906F7B0E8F6F4FDE03C086F002C0B6
:1032100085F001C084F000C083F0045002082DE165
:103220009A0E8E6F990E8D6F190E8C6F7E0E8B6FAE
:1032300086C092F085C091F084C090F083C08FF07A
:10324000F8DD01E21AE1D88286C08EF085C08DF0EB
:1032500084C08CF083C08BF0CD0E926FCC0E916F3A
:103260004C0E906F7B0E8F6F1FDE03C086F002C086
:1032700085F001C084F000C083F070D783EF2CF09C
:1032800083EC0DF08C0EF66E140EF76E8CEC0DF0D8
:103290009CEC0DF09E0EF66E140EF76E030E906F02
:1032A000A2EC0DF0C90EE96E86C093F085C092F0D5
:1032B00084C091F083C090F0010E946FB6DCA70E2D
:1032C000F66E140EF76E0A0E906FA2EC0DF012005F
:1032D000916B11C090F06DEC14F003C08EF002C041
:1032E0008DF001C08CF000C08BF003C093F002C0E1
:1032F00092F001C091F000C090F0976B966B200E99
:10330000956F820E946F88EC14F003C086F002C0B3
:1033100085F001C084F000C083F0B2DF060E9E6F1E
:10332000020E9F6F4FEC0DF09FEC10F0045224E161
:1033300086C0A0F085C09FF084C09EF083C09DF041
:10334000A46BA36B200EA26F820EA16F35EC15F05B
:1033500003C086F002C085F001C084F000C083F095
:1033600086C08EF085C08DF084C08CF083C08BF059
:1033700044DD01C011F061D0042C01D05ED00450B6
:1033800003082BE186C08EF085C08DF084C08CF0E0
:1033900083C08BF0926B916B200E906F810E8F6FBC
:1033A00048DD01E21AE1D89286C08EF085C08DF02A
:1033B00084C08CF083C08BF0CD0E926FCC0E916FD9
:1033C0004C0E906F7B0E8F6F6FDD03C086F002C0D6
:1033D00085F001C084F000C083F0045002082CE1A5
:1033E000330E8E6F8D6F730E8C6F7F0E8B6F86C05A
:1033F00092F085C091F084C090F083C08FF019DD09
:1034000001E21AE1D88286C08EF085C08DF084C0BA
:103410008CF083C08BF0CD0E926FCC0E916F4C0E62
:10342000906F7B0E8F6F40DD03C086F002C085F089
:1034300001C084F000C083F070D788EF2CF083ECDB
:103440000DF0660EF66E140EF76E8CEC0DF09CEC23
:103450000DF0780EF66E140EF76E030E906FA2EC60
:103460000DF0C90EE96E86C093F085C092F084C05D
:1034700091F083C090F0010E946F15EC16F0810E60
:10348000F66E140EF76E0A0E906FA2EC0DF012009D
:10349000916B12C090F06DEC14F003C08EF002C07E
:1034A0008DF001C08CF000C08BF003C093F002C01F
:1034B00092F001C091F000C090F0976B966B200ED7
:1034C000956F820E946F88EC14F003C086F002C0F2
:1034D00085F001C084F000C083F0B1DF060E9E6F5E
:1034E000020E9F6F4FEC0DF09FEC10F0045224E1A0
:1034F00086C0A0F085C09FF084C09EF083C09DF080
:10350000A46BA36B200EA26F820EA16F35EC15F099
:1035100003C086F002C085F001C084F000C083F0D3
:1035200086C08EF085C08DF084C08CF083C08BF097
:1035300064DC01C012F062D0042C01D05FD00450D2
:1035400003082BE186C08EF085C08DF084C08CF01E
:1035500083C08BF0926B916B200E906F810E8F6FFA
:1035600068DC01E21AE1D89286C08EF085C08DF049
:1035700084C08CF083C08BF0CD0E926FCC0E916F17
:103580004C0E906F7B0E8F6F8FDC03C086F002C0F5
:1035900085F001C084F000C083F0045002082DE1E2
:1035A000CD0E8E6FCC0E8D6F0C0E8C6F7F0E8B6FD1
:1035B00086C092F085C091F084C090F083C08FF0F7
:1035C00038DC01E21AE1D88286C08EF085C08DF029
:1035D00084C08CF083C08BF0CD0E926FCC0E916FB7
:1035E0004C0E906F7B0E8F6F5FDC03C086F002C0C5
:1035F00085F001C084F000C083F06FD78DEF2CF010
:1036000083EC0DF0420EF66E140EF76E8CEC0DF09E
:103610009CEC0DF0540EF66E140EF76E080E906FC3
:10362000A2EC0DF013C08CF01B0E8D6FFFEC10F0B0
:103630005E0EF66E140EF76E070E906FA2EC0DF094
:103640001200DEDF090E9E6F020E9F6F4FEC0DF031
:103650009FEC10F0045202E0042C01D011D0045071
:10366000030805E11350020802E3010E132604507B
:10367000020805E11350010802E2010E135EE1D7D2
:1036800092EF2CF00F0E9E6F020E9F6F4FEC0DF01D
:10369000939A8A9A8A8A939A640EA46FF1EC0CF03A
:1036A00093988A98020EA56FD4EC0CF0050EA56FC6
:1036B000D4EC0CF0120083EC0DF01C0EF66E140E20
:1036C000F76E8CEC0DF09CEC0DF02E0EF66E140ED9
:1036D000F76E0C0E906FA2EC0DF014C08CF0010E82
:1036E0008D6FFFEC10F03E0EF66E140EF76E030EAB
:1036F000906FA2EC0DF0C6DF1200DDDF0E0E9E6FA4
:10370000020E9F6F4FEC0DF09FEC10F0045202E0A0
:10371000042C01D011D00450030805E114505908BD
:1037200002E3010E14260450020805E114500508B6
:1037300002E2010E145EE1D797EF2CF083EC0DF05E
:10374000F60EF66E130EF76E8CEC0DF09CEC0DF091
:10375000080EF66E140EF76E0C0E906FA2EC0DF0C4
:1037600015C08CF0010E8D6FFFEC10F0180EF66E88
:10377000140EF76E030E906FA2EC0DF083DF1200B3
:10378000DDDF0E0E9E6F020E9F6F4FEC0DF09FEC73
:1037900010F0045202E0042C01D013D004500308AE
:1037A00007E1640ED8801454155C02E2010E152660
:1037B0000450020805E11550050802E2010E155EED
:1037C000DFD79CEF2CF083EC0DF0D20EF66E130ECB
:1037D000F76E8CEC0DF09CEC0DF0E40EF66E130E13
:1037E000F76E030E906FA2EC0DF0100EE96E1FC085
:1037F0008CF01EC08BF042EC0FF0EA0EF66E130E4A
:10380000F76E0A0E906FA2EC0DF008EF1CF0DBD7FC
:10381000060E9E6F020E9F6F4FEC0DF09FEC10F0A6
:10382000045202E0042C01D01ED0045003080BE126
:103830001F50020808E303E11E50070804E30A0EC4
:103840001E26000E1F22045002080CE11F50000823
:1038500009E2FF0A03E11E50AE0804E20A0E1E5EF2
:10386000000E1F5AD4D7A1EF2CF083EC0DF00C0EF4
:10387000F66E130EF76E8CEC0DF09CEC0DF01652FC
:1038800006E11E0EF66E130EF76E8CEC0DF0162C84
:1038900006D0300EF66E130EF76E8CEC0DF016504F
:1038A000020806E1420EF66E130EF76E8CEC0DF078
:1038B0001650030806E1540EF66E130EF76E8CECEC
:1038C0000DF01650040806E1660EF66E130EF76E44
:1038D0008CEC0DF01650050806E1780EF66E130E0E
:1038E000F76E8CEC0DF01650060806E18A0EF66EA7
:1038F000130EF76E8CEC0DF01650070806E19C0EC7
:10390000F66E130EF76E8CEC0DF01650080806E1FB
:10391000AE0EF66E130EF76E8CEC0DF01650090815
:1039200006E1C00EF66E130EF76E8CEC0DF0120071
:103930009CDF9FEC10F0045202E0042C01D010D068
:103940000450030805E11650080802E3010E16268C
:103950000450020804E1165202E0010E165EE8D798
:10396000A6EF2CF083EC0DF0E40EF66E120EF76E5F
:103970008CEC0DF09CEC0DF0200E9D6F60EC0DF0CA
:10398000200E9D6F60EC0DF00B0EE96E1AC08CF0EE
:1039900019C08BF042EC0FF02E0E9D6F60EC0DF015
:1039A0001BC08CF01B0E8D6FFFEC10F0000EF66E3E
:1039B000130EF76E0A0E906FA2EC0DF012008D51EF
:1039C0008F03F3CF01F0F4CF00F09003F350002603
:1039D0008E518F03F3500020026E1200826BC2DF03
:1039E000040E9E6F020E9F6F4FEC0DF09FEC10F0D7
:1039F0000452D8B41CD0042C01D06AD0045003085F
:103A000009E11A5207E119502C0804E3010E1926A6
:103A1000000E1A220450020809E11A5203E119505B
:103A2000010804E2010E195E000E1A5AD8D79CEC68
:103A30000DF0200E9D6F60EC0DF0200E9D6F60EC80
:103A40000DF00B0EE96E1AC08CF019C08BF042EC31
:103A50000FF02E0E9D6F60EC0DF01BC08CF01B0E56
:103A60008D6FFFEC10F07C0EF66E170EF76E0A0EDF
:103A7000906FA2EC0DF0060E9E6F020E9F6F4FEC42
:103A80000DF09FEC10F004520FE11AC08EF019C037
:103A90008DF0906B0A0E8F6F92DF1B500124176E12
:103AA000000E0220186E14D0042C01D098D70450B8
:103AB000030805E11B50080802E3010E1B26045011
:103AC000020805E11B50000802E2010E1B5EAFD7A1
:103AD000ABEF2CF083EC0DF0BE0EF66E120EF76E0F
:103AE0008CEC0DF09CEC0DF0D00EF66E120EF76E15
:103AF000040E906FA2EC0DF0100EE96E21C08CF058
:103B000020C08BF042EC0FF0D70EF66E120EF76E5F
:103B10000B0E906FA2EC0DF0120083EC0DF0E60E90
:103B2000F66E160EF76E8CEC0DF09CEC0DF08253D9
:103B300046E1105202E0115203E11D6A1C6A3FD0B7
:103B4000750E956F300E946F976B10C096F0FCEC6D
:103B50000EF002C01DF001C01CF01DC08EF01CC094
:103B60008DF0906B0A0E8F6F2ADF02C01DF001C02E
:103B70001CF01DC095F01CC094F0976B11C096F01E
:103B8000FCEC0EF002C01DF001C01CF01DC08EF058
:103B90001CC08DF0906B0A0E8F6F11DF02C01DF0FC
:103BA00001C01CF01DC095F01CC094F0976B030E73
:103BB000966FFCEC0EF002C01DF001C01CF0200E50
:103BC0009D6F60EC0DF0200E9D6F60EC0DF0100EFF
:103BD000E96E1DC08CF01CC08BF042EC0FF0FD0EA6
:103BE000F66E160EF76E0A0E906FA2EC0DF079ECE1
:103BF00010F09FEC10F0042C01D00DD204500308FB
:103C0000D8B401D08AD7825340E11E5205E11F5239
:103C100003E1216A206A34D01DC08EF01CC08DF0F3
:103C2000906B050E8F6FCBDE02C08CF001C08BF065
:103C300002C095F001C094F01FC097F01EC096F02E
:103C4000FCEC0EF002C08CF001C08BF002C08EF0D4
:103C500001C08DF018C090F017C08FF0B0DE02C028
:103C60008CF001C08BF002C095F001C094F0976B0E
:103C7000320E966FFCEC0EF002C021F001C020F075
:103C80002150000802E2216A206824DF8EEC10F047
:103C900079EC10F09FEC10F0042C01D0BCD1045052
:103CA0000208D8B43AD704500308D8B401D0ABD72F
:103CB00083EC0DF0080EF66E170EF76E8CEC0DF01F
:103CC0009CEC0DF01A0EF66E170EF76E8CEC0DF0E4
:103CD0008EEC10F079EC10F09FEC10F0045202E042
:103CE000042C01D098D104500208D8B48CD70450C9
:103CF0000308D8B401D0DCD783EC0DF02C0EF66E9F
:103D0000170EF76E8CEC0DF09CEC0DF03E0EF66E7F
:103D1000170EF76E8CEC0DF08EEC10F0110E9E6FFE
:103D2000020E9F6F4FEC0DF09FEC10F00452D8B4D0
:103D300008D0042C01D06FD104500208D8B4B8D7F1
:103D4000DBD7010E826F83EC0DF0500EF66E170E6E
:103D5000F76E8CEC0DF09CEC0DF0200E9D6F60EC7E
:103D60000DF0200E9D6F60EC0DF0100EE96E1DC081
:103D70008CF01CC08BF042EC0FF0670EF66E170E45
:103D8000F76E0A0E906FA2EC0DF01D5027080BE3A2
:103D900003E11C500F0807E3060E9E6F020E9F6F93
:103DA0004FEC0DF006D0070E9E6F020E9F6F4FEC8A
:103DB0000DF09FEC10F0042C01D07AD704500308CA
:103DC0000BE11D502B0808E303E11C50660804E3D7
:103DD000010E1C26000E1D22045002080CE11D508D
:103DE000020809E2FF0A03E11C50E80804E2010EA0
:103DF0001C5E000E1D5A0452D8B401D0A4D76ADE4E
:103E0000215002080CE2FF0A03E12050E70807E214
:103E1000080E9E6F020E9F6F4FEC0DF02AD02152BC
:103E200003E1205063080EE2215003080BE303E195
:103E30002050E70807E3070E9E6F020E9F6F4FECBE
:103E40000DF017D0215203E1205009080CE2215255
:103E50000AE12050630807E3060E9E6F020E9F6F73
:103E60004FEC0DF006D0050E9E6F020E9F6F4FECCB
:103E70000DF09FEC10F0042C01D065D7045003081E
:103E800009E1215207E12050FE0804E3010E20263B
:103E9000000E21220450020809E1215203E12050C2
:103EA000010804E2010E205E000E215A0452D8A43B
:103EB000B1D01C5207E11D5205E1866B856B846B06
:103EC000836B4ED021C091F020C090F06DEC14F0C7
:103ED00003C08EF002C08DF001C08CF000C08BF0EA
:103EE0001FC091F01EC090F06DEC14F08EC0A0F0D9
:103EF0008DC09FF08CC09EF08BC09DF003C0A4F0DD
:103F000002C0A3F001C0A2F000C0A1F035EC15F092
:103F100003C08EF002C08DF001C08CF000C08BF0A9
:103F20001DC091F01CC090F06DEC14F08EC093F0A9
:103F30008DC092F08CC091F08BC090F003C097F0D0
:103F400002C096F001C095F000C094F088EC14F027
:103F500003C086F002C085F001C084F000C083F089
:103F600086C08EF085C08DF084C08CF083C08BF04D
:103F7000FDEC16F002C01AF001C019F01AC091F061
:103F800019C090F06DEC14F0D88286C08EF085C018
:103F90008DF084C08CF083C08BF003C092F002C01F
:103FA00091F001C090F000C08FF054EC17F003C006
:103FB00086F002C085F001C084F000C083F086C0A6
:103FC000A0F085C09FF084C09EF083C09DF0A46BDC
:103FD000A36B200EA26F820EA16F35EC15F003C00B
:103FE0008EF002C08DF001C08CF000C08BF0FDECB3
:103FF00016F001C01BF01AC08EF019C08DF0906B46
:104000000A0E8F6FDCDC1B500124176E000E02209D
:10401000186E4ED6F4D6B0EF2CF0105205E1256A9A
:10402000246A236A226A2DD018C091F017C090F03C
:104030006DEC14F003C08EF002C08DF001C08CF066
:1040400000C08BF0916B10C090F06DEC14F08EC03E
:1040500093F08DC092F08CC091F08BC090F003C0B3
:1040600097F002C096F001C095F000C094F088EC83
:1040700014F003C025F002C024F001C023F000C0FA
:1040800022F0B5EF2CF0D8908F35036A8D25E96EBC
:104090008E510320EA6EEC6AED52EF6A80B67DD055
:1040A00080B47BD00400640E9E6FC0EC0CF03DEC3D
:1040B0000FF002C008F001C007F026EC10F0D89015
:1040C0008F35036A8D25E96E8E510320EA6EECCFA1
:1040D00091F0ED52EFCF90F091510A5C11E303E1C2
:1040E0000950905D0DE2D8908F35036A8D25E96EF9
:1040F0008E510320EA6E0AC0ECFFED5209C0EFFFBB
:104100000B0E9E6F020E9F6F4FEC0DF0D8908F3507
:10411000036A8D25E96E8E510320EA6EECCF03F021
:10412000ED52EFCF90F003C091F06DEC14F003C0AE
:1041300086F002C085F001C084F000C083F086C024
:1041400093F085C092F084C091F083C090F0976B9B
:10415000966B480E956F850E946F88EC14F003C033
:1041600086F002C085F001C084F000C083F0010E2B
:10417000E96E86C093F085C092F084C091F083C050
:1041800090F0946F15EC16F08F0EF66E110EF76E20
:10419000050E906FA2EC0DF081D780A402D0010E25
:1041A000046EF7EC0EF0D8908F35036A8D25E96E1A
:1041B0008E510320EA6EEFCF01F0E92AEF50E906B5
:1041C000026E1200766B76510408D8A0F7D1040075
:1041D00083EC0DF0010E76258B6FC60EF66E150E74
:1041E000F76E0D0E906FA2EC0DF08BC08CF01B0ED5
:1041F0008D6FFFEC10F0290E9D6F60EC0DF0200E1E
:104200009D6F60EC0DF09CEC0DF0D80EF66E150E67
:10421000F76E8CEC0DF0D8907635036A260F016EA0
:10422000000E032201C08BF003C08CF08E6B260EB3
:104230008D6F76C08FF027DF8CC0EAFF8BC0E9FF5F
:1042400002C0ECFFED5201C0EFFF042C02D0046A63
:10425000BFD783EC0DF0010E76258B6FEA0EF66E5C
:10426000150EF76E0D0E906FA2EC0DF08BC08CF05A
:104270001B0E8D6FFFEC10F0290E9D6F60EC0DF0A2
:10428000200E9D6F60EC0DF09CEC0DF0FC0EF66EB8
:10429000150EF76E8CEC0DF0D8907635036A300F62
:1042A000016E000E032201C08BF003C08CF08E6BF8
:1042B000300E8D6F76C08FF0E6DE8CC0EAFF8BC0CB
:1042C000E9FF02C0ECFFED5201C0EFFF042C02D069
:1042D000046ABFD783EC0DF0010E76258B6F0E0EAE
:1042E000F66E160EF76E0D0E906FA2EC0DF08BC0F1
:1042F0008CF01B0E8D6FFFEC10F0290E9D6F60ECA3
:104300000DF0200E9D6F60EC0DF09CEC0DF0200E7A
:10431000F66E160EF76E8CEC0DF0D8907635036ABB
:104320003A0F016E000E032201C08BF003C08CF027
:104330008E6B3A0E8D6F76C08FF0A5DE8CC0EAFFD3
:104340008BC0E9FF02C0ECFFED5201C0EFFF042C6F
:1043500002D0046ABFD783EC0DF0010E76258B6F77
:10436000320EF66E160EF76E0E0E906FA2EC0DF07A
:104370008BC08CF01B0E8D6FFFEC10F0290E9D6F23
:1043800060EC0DF09CEC0DF0440EF66E160EF76E20
:104390008CEC0DF0D8907635036A440F016E000E58
:1043A000032201C08BF003C08CF08E6B440E8D6F26
:1043B00076C08FF068DE8CC0EAFF8BC0E9FF02C0D8
:1043C000ECFFED5201C0EFFF042C02D0046AC3D70A
:1043D00083EC0DF0010E76258B6F560EF66E160EE1
:1043E000F76E0E0E906FA2EC0DF08BC08CF01B0ED2
:1043F0008D6FFFEC10F0290E9D6F60EC0DF09CECC2
:104400000DF0680EF66E160EF76E8CEC0DF0D8906F
:104410007635036A4E0F016E000E032201C08BF049
:1044200003C08CF08E6B4E0E8D6F76C08FF02BDE3E
:104430008CC0EAFF8BC0E9FF02C0ECFFED5201C067
:10444000EFFF042C02D0046AC3D783EC0DF0010EF9
:1044500076258B6F7A0EF66E160EF76E0E0E906F37
:10446000A2EC0DF08BC08CF01B0E8D6FFFEC10F0EA
:10447000290E9D6F60EC0DF09CEC0DF08C0EF66E2D
:10448000160EF76E8CEC0DF0D8907635036A580F47
:10449000016E000E032201C08BF003C08CF08E6B06
:1044A000580E8D6F76C08FF0EEDD8CC0EAFF8BC0AA
:1044B000E9FF02C0ECFFED5201C0EFFF042C02D077
:1044C000046AC3D783EC0DF0010E76258B6F9E0E28
:1044D000F66E160EF76E0E0E906FA2EC0DF08BC0FE
:1044E0008CF01B0E8D6FFFEC10F0290E9D6F60ECB1
:1044F0000DF09CEC0DF0B00EF66E160EF76E8CEC17
:104500000DF0D8907635036A620F016E000E03221B
:1045100001C08BF003C08CF08E6B620E8D6F76C085
:104520008FF0B1DD8CC0EAFF8BC0E9FF02C0ECFF69
:10453000ED5201C0EFFF042C02D0046AC3D783EC14
:104540000DF0010E76258B6FC20EF66E160EF76E0D
:104550000E0E906FA2EC0DF08BC08CF01B0E8D6FC9
:10456000FFEC10F0290E9D6F60EC0DF09CEC0DF04F
:10457000D40EF66E160EF76E8CEC0DF0D8907635E4
:10458000036A6C0F016E000E032201C08BF003C0A2
:104590008CF08E6B6C0E8D6F76C08FF074DD8CC0DE
:1045A000EAFF8BC0E9FF02C0ECFFED5201C0EFFF54
:1045B000042C02D0046AC3D7762B05D6BAEF2CF0B0
:1045C00083EC0DF0960EF66E120EF76E8CEC0DF07D
:1045D0009CEC0DF0A80EF66E120EF76E090E906FA1
:1045E000A2EC0DF0010EE96E86C093F085C092F04A
:1045F00084C091F083C090F0946F15EC16F0B60E65
:10460000F66E120EF76E060E906FA2EC0DF0120011
:1046100083EC0DF06E0EF66E120EF76E8CEC0DF054
:104620009CEC0DF0800EF66E120EF76E090E906F78
:10463000A2EC0DF0010EE96E86C093F085C092F0F9
:1046400084C091F083C090F0946F15EC16F08E0E3C
:10465000F66E120EF76E060E906FA2EC0DF01200C1
:104660008C6B8B6B786B776B766B765104083FE3C2
:104670000400D8907635036A260FE96E000E0320F9
:10468000EA6EECCF8EF0ED52EFCF8DF0D89076350C
:10469000036A300FE96E000E0320EA6EECCF03F0E0
:1046A000ED52EF508D2703508E23D8907635036A54
:1046B0003A0FE96E000E0320EA6EECCF03F0ED52E4
:1046C000EF508D2703508E238EC095F08DC094F04F
:1046D000976B030E966FFCEC0EF002C08CF001C0DD
:1046E0008BF08B5177278C517823762BBED778C0EF
:1046F00095F077C094F0976B050E966FFCEC0EF07A
:1047000002C078F001C077F08C6B8B6B7A6B796BA1
:10471000766B765104085DE30400D8907635036A21
:10472000440FE96E000E0320EA6EECCF8EF0ED52DE
:10473000EFCF8DF0D8907635036A4E0FE96E000EFC
:104740000320EA6EECCF03F0ED52EF508D270350BB
:104750008E23D8907635036A580FE96E000E032039
:10476000EA6EECCF03F0ED52EF508D2703508E230D
:10477000D8907635036A620FE96E000E0320EA6E68
:10478000ECCF03F0ED52EF508D2703508E23D890DD
:104790007635036A6C0FE96E000E0320EA6EECCFEB
:1047A00003F0ED52EF508D2703508E238EC095F00D
:1047B0008DC094F0976B050E966FFCEC0EF002C066
:1047C0008CF001C08BF08B5179278C517A23762B9A
:1047D000A0D77AC095F079C094F0976B050E966FCC
:1047E000FCEC0EF002C07AF001C079F07951775DEF
:1047F000006E7A51785900C07BF07C6F78C091F0E0
:1048000077C090F06DEC14F003C086F002C085F024
:1048100001C084F000C083F086C093F085C092F0A0
:1048200084C091F083C090F0976B966B480E956FA3
:10483000850E946F88EC14F003C086F002C085F0FA
:1048400001C084F000C083F0BBDE9FEC10F0045286
:10485000D8B401D0D3D77AC091F079C090F06DEC84
:1048600014F003C086F002C085F001C084F000C0DF
:1048700083F086C093F085C092F084C091F083C02D
:1048800090F0976B966B480E956F850E946F88EC41
:1048900014F003C086F002C085F001C084F000C0AF
:1048A00083F0B6DE9FEC10F0042C01D0A7D70452A1
:1048B000D8B401D0D0D7BFEF2CF083EC0DF0BA0EF6
:1048C000F66E110EF76E8CEC0DF09CEC0DF07D2D5C
:1048D00007D0CC0EF66E110EF76E8CEC0DF04CD0AE
:1048E0007D51020807E1DE0EF66E110EF76E8CECBC
:1048F0000DF042D07D51030807E1F00EF66E110E67
:10490000F76E8CEC0DF038D07D51040807E1020EF3
:10491000F66E120EF76E8CEC0DF02ED07D51050860
:1049200007E1140EF66E120EF76E8CEC0DF024D02B
:104930007D51060807E1260EF66E120EF76E8CEC1E
:104940000DF01AD07D51070807E1380EF66E120EF1
:10495000F76E8CEC0DF010D07D51080807E14A0E7F
:10496000F66E120EF76E8CEC0DF006D05C0EF66E45
:10497000120EF76E8CEC0DF0120025C08EF024C0E4
:104980008DF023C08CF022C08BF0926B916B200EC7
:10499000906F810E8F6F19EC17F001E206E1155050
:1049A0002D0803E2010E7D6FBAD125C08EF024C020
:1049B0008DF023C08CF022C08BF0926B916B200E97
:1049C000906F810E8F6F19EC17F001E209E115501D
:1049D000220806E215502D0803E3020E7D6F9FD1D9
:1049E00025C08EF024C08DF023C08CF022C08BF047
:1049F000926B916B200E906F810E8F6F19EC17F0F8
:104A000001E209E115501D0806E21550220803E3F2
:104A1000030E7D6F84D125C08EF024C08DF023C09D
:104A20008CF022C08BF0926B916B200E906F810EF8
:104A30008F6F19EC17F001E203E115501D0817E222
:104A40008E6B8D6B200E8C6F810E8B6F25C092F05C
:104A500024C091F023C090F022C08FF019EC17F021
:104A600009E31450230806E315501D0803E3040E60
:104A70007D6F55D18E6B8D6B200E8C6F810E8B6F81
:104A800025C092F024C091F023C090F022C08FF096
:104A900019EC17F006E314500F0803E3050E7D6FC1
:104AA0003ED18E6B8D6B200E8C6F810E8B6F25C06F
:104AB00092F024C091F023C090F022C08FF019EC46
:104AC00017F007E314500F0804E214501E08D8B082
:104AD00075D08E6B8D6B200E8C6F810E8B6F25C009
:104AE00092F024C091F023C090F022C08FF019EC16
:104AF00017F0D8A066D014502308D8B062D00F5257
:104B000003E00F50050812E17A5101080FE2FF0A95
:104B100003E179514D080AE27CBF50D07C51010875
:104B200005E3D8A44BD07B512C0848E20F2C01D0D0
:104B300003D00F50030811E17A5101080EE2FF0A79
:104B400003E17951610809E27CBF38D07C5101084A
:104B500004E334E17B512C0831E20F50060806E0F3
:104B60000F50020803E00F50080811E17A510108C4
:104B70000EE2FF0A03E17951930809E27CBF1ED0DF
:104B80007C51010804E31AE17B512C0817E20F5015
:104B9000040803E00F50070814E17A51010811E2FC
:104BA000FF0A03E17951B1080CE27CBF07D07C51C8
:104BB000010807E303E17B512C0803E3060E7D6F38
:104BC000AED08E6B8D6B200E8C6F810E8B6F25C0DF
:104BD00092F024C091F023C090F022C08FF019EC25
:104BE00017F007E314501E0804E214502308D8B04D
:104BF0007AD08E6B8D6B200E8C6F810E8B6F25C0E3
:104C000092F024C091F023C090F022C08FF019ECF4
:104C100017F0D8A06BD014502308D8B067D00F522B
:104C200003E00F50050814E17A51010811E2FF0A70
:104C300003E179514D080CE27CBF0AD07C51000899
:104C400007E2FF0AD8A44FD07B512C08D8A04BD044
:104C50000F2C01D003D00F50030812E17A51010844
:104C60000FE2FF0A03E1795161080AE27CBF08D034
:104C70007C51000805E2FF0A36E17B512C0833E342
:104C80000F50060806E00F50020803E00F50080816
:104C900012E17A5101080FE2FF0A03E1795193080A
:104CA0000AE27CBF08D07C51000805E2FF0A1BE144
:104CB0007B512C0818E30F50040803E00F5007083D
:104CC00015E17A51010812E2FF0A03E17951B108B6
:104CD0000DE27CBF0BD07C51000808E2FF0A03E123
:104CE0007B512C0803E2070E7D6F19D08E6B8D6B04
:104CF000200E8C6F810E8B6F25C092F024C091F036
:104D000023C090F022C08FF019EC17F006E3145086
:104D1000230803E2080E7D6F02D0090E7D6FCDDD02
:104D20009FEC10F0045202E0042C01D001D025D6F3
:104D3000C1EF2CF083EC0DF0960EF66E110EF76EAF
:104D4000090E906FA2EC0DF0100EE96E7FC08CF092
:104D50007EC08BF042EC0FF0A20EF66E110EF76ED5
:104D6000040E906FA2EC0DF09CEC0DF0A80EF66E08
:104D7000110EF76E070E906FA2EC0DF0100EE96E9B
:104D800081C08CF080C08BF042EC0FF0B20EF66E5A
:104D9000110EF76E060E906FA2EC0DF012007D5111
:104DA0000408D8A4DFD07A51010812E303E1795155
:104DB000C1080EE37CBF07D07C51010809E303E181
:104DC0007B512B0805E3030E7F6F520E7E6F4ED092
:104DD0007A51010813E303E17951C1080FE37CBF65
:104DE0000DD07C5100080AE2FF0A03E17B512B0839
:104DF00005E2030E7F6F840E7E6F38D07A51000873
:104E00001AE2FF0A03E17951C10815E27A5102085A
:104E100012E303E179518A080EE37CBF07D07C518D
:104E2000010809E303E17B512B0805E3030E7F6FC3
:104E3000B60E7E6F1BD07A51010814E2FF0A03E11F
:104E400079518A080FE27CBF0DD07C5100080AE23C
:104E5000FF0A03E17B512B0805E2030E7F6FE80E8A
:104E60007E6F04D0030E7F6F840E7E6F165206E1B4
:104E70001250240803E212502D0815E216500208C1
:104E800006E11250220803E2125028080CE21650E4
:104E9000050803E0165008080BE112501D0808E24F
:104EA0001250220805E3030E816F200E806F58D048
:104EB000165203E1125024082DE2162C01D003D023
:104EC0001650060806E11250220803E21250280884
:104ED00021E21650020803E1125022081BE216508C
:104EE000030809E01650040806E01650070803E01E
:104EF0001650090806E112501D0803E21250250859
:104F000009E21650050803E01650080808E112509F
:104F10001D0805E3030E816F840E806F21D0162CCF
:104F200001D003D01650060803E1125022080FE208
:104F30001650030809E01650040806E0165007084A
:104F400003E01650090808E112501D0805E3030E9E
:104F5000816FE80E806F04D0020E816FBC0E806FEF
:104F600010EF2BF00F5203E00F50050807E17A51C4
:104F7000010804E319E17951DF0816E20F2C01D092
:104F800003D00F50030815E17A51010812E303E141
:104F90007951F3080EE37CBF07D07C51010809E387
:104FA00003E17B512B0805E3020E7F6FBC0E7E6F81
:104FB000E9D10F5203E00F50050818E17A510008BB
:104FC00015E2FF0A03E17951DF0810E27A51020885
:104FD0000DE303E17951110809E37CBF44D07C5112
:104FE000010804E340E17B512B083DE20F2C01D086
:104FF00003D00F50030811E17A5101080EE303E1D9
:105000007951F3080AE37CBF08D07C51000805E21F
:10501000FF0A29E17B512B0826E30F50060806E022
:105020000F50020803E00F50080807E17A51020808
:1050300004E319E179512F0816E20F50040803E048
:105040000F50070815E17A51020812E303E1795184
:1050500043080EE37CBF07D07C51010809E303E15C
:105060007B512B0805E3020E7F6FEE0E7E6F8AD117
:105070000F5203E00F5005081BE17A51000818E2B7
:10508000FF0A03E17951DF0813E27A51020810E3C5
:1050900003E1795111080CE37CBF0AD07C51000870
:1050A00007E2FF0AD8A45AD07B512B08D8A056D0CB
:1050B0000F2C01D003D00F50030818E17A510008DB
:1050C00015E2FF0A03E17951F30810E27A51020870
:1050D0000DE303E17951250809E37CBF3FD07C5102
:1050E000010804E33BE17B512B0838E20F5006082E
:1050F00006E00F50020803E00F50080818E17A514B
:10510000010815E2FF0A03E179512F0810E27A51F4
:1051100002080DE303E17951570809E37CBF1ED073
:105120007C51010804E31AE17B512B0817E20F5070
:10513000040803E00F50070816E17A51020813E350
:1051400003E1795143080FE37CBF0DD07C51000887
:105150000AE2FF0A03E17B512B0805E2030E7F6F91
:10516000200E7E6F0FD10F5203E00F5005081AE199
:105170007A51010817E2FF0A03E17951110812E29E
:105180007A5102080FE303E1795143080BE37CBF36
:1051900068D07C51010806E3D8A463D07B512B086A
:1051A000D8B05FD00F2C01D003D00F50030819E105
:1051B0007A51000816E2FF0A03E17951F30811E27F
:1051C0007A5102080EE303E1795125080AE37CBF16
:1051D00008D07C51000805E2FF0A43E17B512B080F
:1051E00040E30F50060806E00F50020803E00F509E
:1051F000080819E17A51010816E2FF0A03E1795122
:105200002F0811E27A5102080EE303E179515708A1
:105210000AE37CBF08D07C51000805E2FF0A21E1C7
:105220007B512B081EE30F50040803E00F500708C2
:105230001DE17A5101081AE2FF0A03E1795143089E
:1052400015E27A51020812E303E179516B080EE38B
:105250007CBF07D07C51010809E303E17B512B0897
:1052600005E3030E7F6F520E7E6F8CD00F50040843
:1052700003E00F5007081EE17A5101081BE2FF0A04
:1052800003E179516B0816E27A51020813E303E156
:105290007951A7080FE37CBF0DD07C5100080AE2CA
:1052A000FF0A03E17B512B0805E2030E7F6FE80E36
:1052B0007E6F68D00F2C01D003D00F50030819E186
:1052C0007A51010816E2FF0A03E17951250811E23B
:1052D0007A5102080EE303E1795157080AE37CBFD3
:1052E00008D07C51000805E2FF0A43E17B512B08FE
:1052F00040E30F50060806E00F50020803E00F508D
:10530000080819E17A51010816E2FF0A03E1795110
:10531000570811E27A5102080EE303E17951890836
:105320000AE37CBF08D07C51000805E2FF0A21E1B6
:105330007B512B081EE30F50040803E00F500708B1
:105340001DE17A5101081AE2FF0A03E179516B0865
:1053500015E27A51020812E303E17951A7080EE33E
:105360007CBF07D07C51010809E303E17B512B0886
:1053700005E3030E7F6FB60E7E6F04D0030E7F6FC2
:10538000840E7E6F165203E1125024081BE2162C85
:1053900001D003D01650060803E11250220812E291
:1053A0001650030803E01650090803E112501D08C7
:1053B00009E21650040803E0165007082FE11250C6
:1053C0001D082CE38E6B8D6B200E8C6F810E8B6F06
:1053D00025C092F024C091F023C090F022C08FF03D
:1053E00019EC17F001E21AE125C08EF024C08DF00F
:1053F00023C08CF022C08BF0926B916B500E906F9B
:10540000820E8F6F19EC17F001E208E113500208C9
:1054100005E3060E816F400E806F02D1165203E144
:10542000125024081BE2162C01D003D01650060897
:1054300003E11250220812E21650030803E016504E
:10544000090803E112501D0809E21650040803E0A0
:105450001650070818E112501D0815E38E6B8D6B6E
:10546000500E8C6F820E8B6F25C092F024C091F08D
:1054700023C090F022C08FF019EC17F0D8B056D0AE
:105480001350030853E0165206E11250240803E2B9
:1054900012502D0824E2162C01D003D01650060815
:1054A00006E11250220803E21250280818E21650B2
:1054B000030803E01650090806E112501D0803E234
:1054C000125025080CE21650040803E01650070895
:1054D00032E112501D082FE2125023082CE38E6B8C
:1054E0008D6B200E8C6F810E8B6F25C092F024C0C7
:1054F00091F023C090F022C08FF019EC17F001E278
:105500001AE125C08EF024C08DF023C08CF022C09B
:105510008BF0926B916B500E906F820E8F6F19EC27
:1055200017F001E208E11350020805E3050E816F50
:10553000140E806F75D01650020803E11250220835
:1055400009E21650050803E0165008082FE1125032
:105550001D082CE38E6B8D6B200E8C6F810E8B6F74
:1055600025C092F024C091F023C090F022C08FF0AB
:1055700019EC17F001E21AE125C08EF024C08DF07D
:1055800023C08CF022C08BF0926B916B500E906F09
:10559000820E8F6F19EC17F001E208E11350020838
:1055A00005E3040E816FB00E806F3AD08E6B8D6B69
:1055B000500E8C6F820E8B6F25C092F024C091F03C
:1055C00023C090F022C08FF019EC17F003E21350C3
:1055D000030822E1165206E11250240803E2125099
:1055E0002D0815E21650020806E11250220803E2C7
:1055F000125028080CE21650050803E0165008085F
:105600000BE112501D0808E21250230805E3030EB7
:10561000816F200E806F04D0030E816FE80E806FC3
:105620009AEC26F09FEC10F004521BE17FC095F03D
:105630007EC094F0976B0A0E966FFCEC0EF002C0E1
:105640007FF001C07EF081C095F080C094F0976B30
:105650000A0E966FFCEC0EF002C081F001C080F0E3
:1056600004D0042C01D001D0DBD7CDEF2CF00B52AD
:1056700003E00B500C08D8A02ED1010E0B5C150DC9
:10568000F3508C6B8B6F8CC090F08BC08FF00CC084
:1056900091F048EC0EF0010E8B258D6F000E8C21E1
:1056A0008E6F906F8DC08FF00DC091F048EC0EF0B2
:1056B000020E8B258D6F000E8C218E6F906F8DC02A
:1056C0008FF00EC091F048EC0EF0030E8B258D6F1D
:1056D000000E8C218E6F906F8DC08FF00FC091F0F7
:1056E00048EC0EF0040E8B258D6F000E8C218E6F12
:1056F000906F8DC08FF010C091F048EC0EF0050E49
:105700008B258D6F000E8C218E6F906F8DC08FF06A
:1057100011C091F048EC0EF0060E8B258D6F000E37
:105720008C218E6F906F8DC08FF012C091F048EC7D
:105730000EF0070E8B258D6F000E8C218E6F906FF3
:105740008DC08FF013C091F048EC0EF0080E8B2541
:105750008D6F000E8C218E6F906F8DC08FF014C0F6
:1057600091F048EC0EF0090E8B258D6F000E8C2108
:105770008E6F906F8DC08FF015C091F048EC0EF0D9
:105780000A0E8B258D6F000E8C218E6F906F8DC051
:105790008FF016C091F048EC0EF00B0E8B258D6F3C
:1057A000000E8C218E6F906F8DC08FF019C091F01C
:1057B00048EC0EF00C0E8B258D6F000E8C218E6F39
:1057C000906F8DC08FF01BC091F048EC0EF00D0E65
:1057D0008B258D6F000E8C218E6F906F8DC08FF09A
:1057E00020C091F048EC0EF078C088F077C087F0C8
:1057F0000E0E8B258D6F000E8C218E6F906F8DC0DD
:105800008FF087C091F048EC0EF00F0E8B258D6F56
:10581000000E8C218E6F906F8DC08FF088C091F03C
:1058200048EC0EF07AC088F079C087F0100E8B2516
:105830008D6F000E8C218E6F906F8DC08FF087C0A2
:1058400091F048EC0EF0110E8B258D6F000E8C211F
:105850008E6F906F8DC08FF088C091F048EC0EF085
:10586000120E8B258D6F000E8C218E6F906F8DC068
:105870008FF07DC091F048EC0EF0130E8B258D6FEC
:10588000000E8C218E6F906F8DC08FF07EC091F0D6
:1058900048EC0EF0140E8B258D6F000E8C218E6F50
:1058A000906F8DC08FF080C091F048EC0EF090ECBE
:1058B0000EF083EC0DF0A20EF66E150EF76EB1EC45
:1058C0000DF09CEC0DF0B40EF66E150EF76EB1EC0B
:1058D0000DF0ECEC0EF0D1EF2CF032EC11F0042CCA
:1058E00001D05FD043EF13F0042C01D0F6D787EF3F
:1058F00013F0042C01D0F1D754EF14F0042C01D094
:10590000F6D789EF18F0042C01D0F6D768EF19F01C
:10591000042C01D0F6D748EF1AF0042C01D0F6D7AA
:1059200021EF1BF0042C01D0F6D77DEF1BF0042CE7
:1059300001D0F6D7C0EF1BF0042C01D0F6D707EF4B
:105940001CF0042C01D0F6D798EF1CF0042C01D0E9
:10595000F6D7EEEF1CF0042C01D0F6D78DEF1DF03A
:10596000042C01D0F6D70DEF20F0042C01D0F6D78F
:10597000E2EF20F0042C01D0F6D730EF23F0BDEF9A
:1059800024F0042C01D0F9D77D51040804E07D51A6
:105990000808D8A405D0CFEF26F0042C01D0EFD70B
:1059A00066D666EF30F032EC11F0042C01D07FD2D5
:1059B0006DEC11F07D510908D8A063D27FC08EF044
:1059C0007EC08DF0906B0A0E8F6FDFEC1CF002C072
:1059D0007FF001C07EF081C08EF080C08DF0906BB2
:1059E0000A0E8F6FDFEC1CF002C081F001C080F066
:1059F00065EC13F079EC10F09FEC10F0042C01D062
:105A0000D2D704500308D8B401D0F2D7FAEC13F07F
:105A10008EEC10F079EC10F09FEC10F0042C01D01B
:105A200046D204500308D8B405D004500208D8B4B4
:105A3000DFD7ECD7916B10C090F06DEC14F003C081
:105A40008EF002C08DF001C08CF000C08BF003C05E
:105A500093F002C092F001C091F000C090F0976BFB
:105A6000966B200E956F820E946F88EC14F003C035
:105A700086F002C085F001C084F000C083F0D5EC50
:105A800016F08EEC10F079EC10F09FEC10F0042C76
:105A900001D00DD204500308D8B405D00450020838
:105AA000D8B4B4D7C7D7916B11C090F06DEC14F097
:105AB00003C08EF002C08DF001C08CF000C08BF0EE
:105AC00003C093F002C092F001C091F000C090F0CA
:105AD000976B966B200E956F820E946F88EC14F086
:105AE00003C086F002C085F001C084F000C083F0DE
:105AF00040EC19F08EEC10F079EC10F09FEC10F007
:105B0000042C01D0D4D104500308D8B405D00450DB
:105B10000208D8B48FD7C7D7916B12C090F06DEC44
:105B200014F003C08EF002C08DF001C08CF000C0F4
:105B30008BF003C093F002C092F001C091F000C05E
:105B400090F0976B966B200E956F820E946F88EC99
:105B500014F003C086F002C085F001C084F000C0DC
:105B600083F01FEC1AF08EEC10F079EC10F09FEC43
:105B700010F0042C01D09BD104500308D8B405D0F8
:105B800004500208D8B48FD7C7D700EC1BF08EECB6
:105B900010F079EC10F09FEC10F0042C01D087D1BC
:105BA00004500308D8B405D004500208D8B4B4D7C0
:105BB000ECD75BEC1BF08EEC10F079EC10F09FEC66
:105BC00010F0042C01D073D104500308D8B405D0D0
:105BD00004500208D8B4D9D7ECD79EEC1BF08EEC59
:105BE00010F079EC10F09FEC10F0042C01D05FD194
:105BF00004500308D8B405D004500208D8B4D9D74B
:105C0000ECD735EC1CF0010E9E6F9F6F4FEC0DF042
:105C1000939A8A9A8A8A939A640EA46FF1EC0CF094
:105C200093988A98070EA56FD4EC0CF00F0EA56F11
:105C3000D4EC0CF0100E9E6F010E9F6F4FEC0DF028
:105C4000939A8A9A8A8A939A640EA46FF1EC0CF064
:105C500093988A98070EA56FD4EC0CF00E0EA56FE2
:105C6000D4EC0CF09FEC10F0042C01D020D10450A7
:105C70000308D8B405D004500208D8B4AED7C1D7B1
:105C8000B2EC1CF08EEC10F079EC10F09FEC10F000
:105C9000042C01D00CD104500308D8B405D0045012
:105CA0000208D8B4AED7ECD76AEC1DF08EEC10F039
:105CB00079EC10F09FEC10F0042C01D0F8D00450D7
:105CC0000308D8B405D004500208D8B4D9D7ECD70B
:105CD00078C091F077C090F06DEC14F003C086F0BE
:105CE00002C085F001C084F000C083F086C093F04C
:105CF00085C092F084C091F083C090F0976B966B52
:105D0000480E956F850E946F88EC14F003C086F0F2
:105D100002C085F001C084F000C083F0E0EC22F006
:105D20008EEC10F079EC10F09FEC10F0042C01D008
:105D3000BED004500308D8B405D004500208D8B42B
:105D4000B3D7C6D77AC091F079C090F06DEC14F05B
:105D500003C086F002C085F001C084F000C083F06B
:105D600086C093F085C092F084C091F083C090F01B
:105D7000976B966B480E956F850E946F88EC14F0B8
:105D800003C086F002C085F001C084F000C083F03B
:105D900008EC23F08EEC10F079EC10F09FEC10F092
:105DA000042C01D084D004500308D8B405D004508A
:105DB0000208D8B48DD7C6D75DEC24F0010E9E6FD3
:105DC0009F6F4FEC0DF0939A8A9A8A8A939A640E89
:105DD000A46FF1EC0CF093988A98070EA56FD4ECA1
:105DE0000CF00F0EA56FD4EC0CF07D51040803E00D
:105DF0007D51080818E1100E9E6F010E9F6F4FEC49
:105E00000DF0939A8A9A8A8A939A640EA46FF1ECA1
:105E10000CF093988A98070EA56FD4EC0CF00E0E38
:105E2000A56FD4EC0CF0110E9E6F010E9F6F4FEC1E
:105E30000DF09FEC10F0042C01D039D00450030871
:105E400007E17D51040803E07D510808D8B405D06E
:105E500004500208D8B476D7AFD79AEC26F08EEC6F
:105E600010F0110E9E6F020E9F6F4FEC0DF09FEC25
:105E700010F0042C01D01BD004500208D8B49CD7D9
:105E8000ECD783EC0DF0060EF66E180EF76E8CEC68
:105E90000DF09CEC0DF0180EF66E180EF76E8CECF3
:105EA0000DF09FEC10F0042C01D001D0EAD766EF82
:105EB00030F08C6B8B6B8C5100080CE38CC090F035
:105EC0008BC08FF0916948EC0EF004008B2BD8B496
:105ED0008C2BF1D790EC0EF083EF2FF083EC0DF0CC
:105EE000BE0EF66E170EF76E8CEC0DF09CEC0DF0FE
:105EF000D00EF66E170EF76E8CEC0DF09FEC10F0D6
:105F0000045214E1D6D783EC0DF0E20EF66E170EB4
:105F1000F76E8CEC0DF09CEC0DF0F40EF66E170E97
:105F2000F76E8CEC0DF0ECEC0EF004D0042C01D0EC
:105F300001D0D4D766EF30F0F86AD09E010E0B6E18
:105F4000766B786B776B7A6B796B7C6B7B6B7D6B2D
:105F5000826BC150C00B0F09C16E070EB46E010EEB
:105F6000896FC050C00B0609C06EC08EC280C15080
:105F7000C00B0E09C16E000E016EC250C30B0110A2
:105F8000C26E1BEF0DF0CCEF0DF00400B6EF0EF07B
:105F900083EC0DF0A80EF66E180EF76E8CEC0DF07B
:105FA0009CEC0DF0BA0EF66E180EF76E8CEC0DF040
:105FB000ECEC0EF083EC0DF0CC0EF66E180EF76ED6
:105FC0008CEC0DF09CEC0DF0DE0EF66E180EF76EFC
:105FD0008CEC0DF0F7EC0EF0400E906F1DEC0FF016
:105FE00002C006F001C005F080B29BEC0FF080B853
:105FF00043EF10F0040083EC0DF0892D11D0F00E6A
:10600000F66E180EF76E8CEC0DF09CEC0DF0020E97
:10601000F66E190EF76E8CEC0DF079EC10F03FD0A7
:106020008951020813E1140EF66E190EF76E8CEC0E
:106030000DF09CEC0DF0260EF66E190EF76E8CEC42
:106040000DF08EEC10F079EC10F029D08951030896
:1060500013E1380EF66E190EF76E8CEC0DF09CEC19
:106060000DF04A0EF66E190EF76E8CEC0DF08EECFC
:1060700010F079EC10F013D08951040810E15C0E97
:10608000F66E190EF76E8CEC0DF09CEC0DF06E0EAA
:10609000F66E190EF76E8CEC0DF08EEC10F09FEC96
:1060A00010F0045214E1892D02D017D40FD0895179
:1060B000020802E178D40AD08951030803E19BEC7D
:1060C0000FF004D08951040801E108D711D0045021
:1060D000020805E18951010801E2890709D004504D
:1060E000030806E1040E8A6F8A51895D01E2892B5B
:0460F00081D7030051
:020000040030CA
:0E00000024CE3E15008781000FC00FE00F4098
:00000001FF
;PIC18F2550
;CRC=CFB5  CREATED="24-jun-26 09:02"
